{
  "contractName": "SimpleCounter",
  "abi": [
    {
      "inputs": [],
      "stateMutability": "nonpayable",
      "type": "constructor"
    },
    {
      "anonymous": false,
      "inputs": [
        {
          "indexed": false,
          "internalType": "uint256",
          "name": "newValue",
          "type": "uint256"
        }
      ],
      "name": "CounterDecreased",
      "type": "event"
    },
    {
      "anonymous": false,
      "inputs": [
        {
          "indexed": false,
          "internalType": "uint256",
          "name": "newValue",
          "type": "uint256"
        }
      ],
      "name": "CounterIncreased",
      "type": "event"
    },
    {
      "inputs": [],
      "name": "increase",
      "outputs": [],
      "stateMutability": "nonpayable",
      "type": "function"
    },
    {
      "inputs": [],
      "name": "decrease",
      "outputs": [],
      "stateMutability": "nonpayable",
      "type": "function"
    },
    {
      "inputs": [],
      "name": "getCounter",
      "outputs": [
        {
          "internalType": "uint256",
          "name": "",
          "type": "uint256"
        }
      ],
      "stateMutability": "view",
      "type": "function",
      "constant": true
    }
  ],
  "bytecode": "0x608060405234801561001057600080fd5b506000808190555061030c806100276000396000f3fe608060405234801561001057600080fd5b50600436106100415760003560e01c80638ada066e14610046578063d732d95514610064578063e8927fbc1461006e575b600080fd5b61004e610078565b60405161005b91906101fe565b60405180910390f35b61006c610081565b005b610076610117565b005b60008054905090565b60008054116100c5576040517f08c379a00000000000000000000000000000000000000000000000000000000081526004016100bc906101de565b60405180910390fd5b6000808154809291906100d790610234565b91905055507f8e2dc3acdc9ccc998b84155103ad06fdc57733681108c79c1a98d628e5b27e4860005460405161010d91906101fe565b60405180910390a1565b6000808154809291906101299061025e565b91905055507f9389e4e5d18f626febd3fd1c8a0fc1a63c8ff20d46c4cca7221a57aa790edaaa60005460405161015f91906101fe565b60405180910390a1565b6000610176602683610219565b91507f436f756e7465722063616e6e6f74206265206465637265617365642062656c6f60008301527f77207a65726f00000000000000000000000000000000000000000000000000006020830152604082019050919050565b6101d88161022a565b82525050565b600060208201905081810360008301526101f781610169565b9050919050565b600060208201905061021360008301846101cf565b92915050565b600082825260208201905092915050565b6000819050919050565b600061023f8261022a565b91506000821415610253576102526102a7565b5b600182039050919050565b60006102698261022a565b91507fffffffffffffffffffffffffffffffffffffffffffffffffffffffffffffffff82141561029c5761029b6102a7565b5b600182019050919050565b7f4e487b7100000000000000000000000000000000000000000000000000000000600052601160045260246000fdfea2646970667358221220ded8c81d1fc37babb1800070df2c58394898ad60f47d3e2df1afba958a7d032664736f6c63430008000033",
  "immutableReferences": {},
  "source": "// SPDX-License-Identifier: MIT\npragma solidity ^0.8.0;\n\ncontract SimpleCounter {\n    uint256 private counter;\n\n    event CounterIncreased(uint256 newValue);\n    event CounterDecreased(uint256 newValue);\n\n    constructor() {\n        counter = 0;\n    }\n\n    function increase() public {\n        counter++;\n        emit CounterIncreased(counter);\n    }\n\n    function decrease() public {\n        require(counter > 0, \"Counter cannot be decreased below zero\");\n        counter--;\n        emit CounterDecreased(counter);\n    }\n\n    function getCounter() public view returns (uint256) {\n        return counter;\n    }\n}\n",
  "sourcePath": "D:\\WEB 3\\Projects\\NextApps\\SimpleCounterApp\\backend\\contracts\\SimpleCounter.sol",
  "compiler": {
    "name": "solc",
    "version": "0.8.0+commit.c7dfd78e.Emscripten.clang"
  },
  "schemaVersion": "3.4.14",
  "updatedAt": "2023-06-01T08:54:56.473Z",
  "networkType": "ethereum",
  "devdoc": {
    "kind": "dev",
    "methods": {},
    "version": 1
  },
  "userdoc": {
    "kind": "user",
    "methods": {},
    "version": 1
  }
}